{
  "contractName": "LandRegistry",
  "abi": [
    {
      "anonymous": false,
      "inputs": [
        {
          "indexed": false,
          "internalType": "uint256",
          "name": "id",
          "type": "uint256"
        },
        {
          "indexed": false,
          "internalType": "string",
          "name": "owner",
          "type": "string"
        },
        {
          "indexed": false,
          "internalType": "string",
          "name": "location",
          "type": "string"
        },
        {
          "indexed": false,
          "internalType": "uint256",
          "name": "size",
          "type": "uint256"
        }
      ],
      "name": "LandRegistered",
      "type": "event"
    },
    {
      "inputs": [],
      "name": "landCount",
      "outputs": [
        {
          "internalType": "uint256",
          "name": "",
          "type": "uint256"
        }
      ],
      "stateMutability": "view",
      "type": "function",
      "constant": true
    },
    {
      "inputs": [
        {
          "internalType": "uint256",
          "name": "",
          "type": "uint256"
        }
      ],
      "name": "lands",
      "outputs": [
        {
          "internalType": "uint256",
          "name": "id",
          "type": "uint256"
        },
        {
          "internalType": "string",
          "name": "owner",
          "type": "string"
        },
        {
          "internalType": "string",
          "name": "location",
          "type": "string"
        },
        {
          "internalType": "uint256",
          "name": "size",
          "type": "uint256"
        },
        {
          "internalType": "bool",
          "name": "isRegistered",
          "type": "bool"
        }
      ],
      "stateMutability": "view",
      "type": "function",
      "constant": true
    },
    {
      "inputs": [
        {
          "internalType": "string",
          "name": "_owner",
          "type": "string"
        },
        {
          "internalType": "string",
          "name": "_location",
          "type": "string"
        },
        {
          "internalType": "uint256",
          "name": "_size",
          "type": "uint256"
        }
      ],
      "name": "registerLand",
      "outputs": [],
      "stateMutability": "nonpayable",
      "type": "function"
    },
    {
      "inputs": [
        {
          "internalType": "uint256",
          "name": "_id",
          "type": "uint256"
        }
      ],
      "name": "getLand",
      "outputs": [
        {
          "components": [
            {
              "internalType": "uint256",
              "name": "id",
              "type": "uint256"
            },
            {
              "internalType": "string",
              "name": "owner",
              "type": "string"
            },
            {
              "internalType": "string",
              "name": "location",
              "type": "string"
            },
            {
              "internalType": "uint256",
              "name": "size",
              "type": "uint256"
            },
            {
              "internalType": "bool",
              "name": "isRegistered",
              "type": "bool"
            }
          ],
          "internalType": "struct LandRegistry.Land",
          "name": "",
          "type": "tuple"
        }
      ],
      "stateMutability": "view",
      "type": "function",
      "constant": true
    }
  ],
  "bytecode": "0x6080604052348015600e575f5ffd5b50610d818061001c5f395ff3fe608060405234801561000f575f5ffd5b506004361061004a575f3560e01c8063cb9bff701461004e578063d7bce6581461006a578063e261f1e514610088578063f02dd53f146100bc575b5f5ffd5b6100686004803603810190610063919061069e565b6100ec565b005b6100726101e5565b60405161007f9190610735565b60405180910390f35b6100a2600480360381019061009d919061074e565b6101eb565b6040516100b39594939291906107f3565b60405180910390f35b6100d660048036038101906100d1919061074e565b610334565b6040516100e39190610932565b60405180910390f35b60015f8154809291906100fe9061097f565b91905055506040518060a001604052806001548152602001848152602001838152602001828152602001600115158152505f5f60015481526020019081526020015f205f820151815f0155602082015181600101908161015e9190610bc3565b5060408201518160020190816101749190610bc3565b50606082015181600301556080820151816004015f6101000a81548160ff0219169083151502179055509050507f892b379b37cd07fe40cab6859a79d8898e1e854252b58ae38596fa21d30b65be6001548484846040516101d89493929190610c92565b60405180910390a1505050565b60015481565b5f602052805f5260405f205f91509050805f01549080600101805461020f906109f3565b80601f016020809104026020016040519081016040528092919081815260200182805461023b906109f3565b80156102865780601f1061025d57610100808354040283529160200191610286565b820191905f5260205f20905b81548152906001019060200180831161026957829003601f168201915b50505050509080600201805461029b906109f3565b80601f01602080910402602001604051908101604052809291908181526020018280546102c7906109f3565b80156103125780601f106102e957610100808354040283529160200191610312565b820191905f5260205f20905b8154815290600101906020018083116102f557829003601f168201915b505050505090806003015490806004015f9054906101000a900460ff16905085565b61033c6104f0565b600154821115610381576040517f08c379a000000000000000000000000000000000000000000000000000000000815260040161037890610d2d565b60405180910390fd5b5f5f8381526020019081526020015f206040518060a00160405290815f82015481526020016001820180546103b5906109f3565b80601f01602080910402602001604051908101604052809291908181526020018280546103e1906109f3565b801561042c5780601f106104035761010080835404028352916020019161042c565b820191905f5260205f20905b81548152906001019060200180831161040f57829003601f168201915b50505050508152602001600282018054610445906109f3565b80601f0160208091040260200160405190810160405280929190818152602001828054610471906109f3565b80156104bc5780601f10610493576101008083540402835291602001916104bc565b820191905f5260205f20905b81548152906001019060200180831161049f57829003601f168201915b5050505050815260200160038201548152602001600482015f9054906101000a900460ff1615151515815250509050919050565b6040518060a001604052805f815260200160608152602001606081526020015f81526020015f151581525090565b5f604051905090565b5f5ffd5b5f5ffd5b5f5ffd5b5f5ffd5b5f601f19601f8301169050919050565b7f4e487b71000000000000000000000000000000000000000000000000000000005f52604160045260245ffd5b61057d82610537565b810181811067ffffffffffffffff8211171561059c5761059b610547565b5b80604052505050565b5f6105ae61051e565b90506105ba8282610574565b919050565b5f67ffffffffffffffff8211156105d9576105d8610547565b5b6105e282610537565b9050602081019050919050565b828183375f83830152505050565b5f61060f61060a846105bf565b6105a5565b90508281526020810184848401111561062b5761062a610533565b5b6106368482856105ef565b509392505050565b5f82601f8301126106525761065161052f565b5b81356106628482602086016105fd565b91505092915050565b5f819050919050565b61067d8161066b565b8114610687575f5ffd5b50565b5f8135905061069881610674565b92915050565b5f5f5f606084860312156106b5576106b4610527565b5b5f84013567ffffffffffffffff8111156106d2576106d161052b565b5b6106de8682870161063e565b935050602084013567ffffffffffffffff8111156106ff576106fe61052b565b5b61070b8682870161063e565b925050604061071c8682870161068a565b9150509250925092565b61072f8161066b565b82525050565b5f6020820190506107485f830184610726565b92915050565b5f6020828403121561076357610762610527565b5b5f6107708482850161068a565b91505092915050565b5f81519050919050565b5f82825260208201905092915050565b8281835e5f83830152505050565b5f6107ab82610779565b6107b58185610783565b93506107c5818560208601610793565b6107ce81610537565b840191505092915050565b5f8115159050919050565b6107ed816107d9565b82525050565b5f60a0820190506108065f830188610726565b818103602083015261081881876107a1565b9050818103604083015261082c81866107a1565b905061083b6060830185610726565b61084860808301846107e4565b9695505050505050565b61085b8161066b565b82525050565b5f82825260208201905092915050565b5f61087b82610779565b6108858185610861565b9350610895818560208601610793565b61089e81610537565b840191505092915050565b6108b2816107d9565b82525050565b5f60a083015f8301516108cd5f860182610852565b50602083015184820360208601526108e58282610871565b915050604083015184820360408601526108ff8282610871565b91505060608301516109146060860182610852565b50608083015161092760808601826108a9565b508091505092915050565b5f6020820190508181035f83015261094a81846108b8565b905092915050565b7f4e487b71000000000000000000000000000000000000000000000000000000005f52601160045260245ffd5b5f6109898261066b565b91507fffffffffffffffffffffffffffffffffffffffffffffffffffffffffffffffff82036109bb576109ba610952565b5b600182019050919050565b7f4e487b71000000000000000000000000000000000000000000000000000000005f52602260045260245ffd5b5f6002820490506001821680610a0a57607f821691505b602082108103610a1d57610a1c6109c6565b5b50919050565b5f819050815f5260205f209050919050565b5f6020601f8301049050919050565b5f82821b905092915050565b5f60088302610a7f7fffffffffffffffffffffffffffffffffffffffffffffffffffffffffffffffff82610a44565b610a898683610a44565b95508019841693508086168417925050509392505050565b5f819050919050565b5f610ac4610abf610aba8461066b565b610aa1565b61066b565b9050919050565b5f819050919050565b610add83610aaa565b610af1610ae982610acb565b848454610a50565b825550505050565b5f5f905090565b610b08610af9565b610b13818484610ad4565b505050565b5b81811015610b3657610b2b5f82610b00565b600181019050610b19565b5050565b601f821115610b7b57610b4c81610a23565b610b5584610a35565b81016020851015610b64578190505b610b78610b7085610a35565b830182610b18565b50505b505050565b5f82821c905092915050565b5f610b9b5f1984600802610b80565b1980831691505092915050565b5f610bb38383610b8c565b9150826002028217905092915050565b610bcc82610779565b67ffffffffffffffff811115610be557610be4610547565b5b610bef82546109f3565b610bfa828285610b3a565b5f60209050601f831160018114610c2b575f8415610c19578287015190505b610c238582610ba8565b865550610c8a565b601f198416610c3986610a23565b5f5b82811015610c6057848901518255600182019150602085019450602081019050610c3b565b86831015610c7d5784890151610c79601f891682610b8c565b8355505b6001600288020188555050505b505050505050565b5f608082019050610ca55f830187610726565b8181036020830152610cb781866107a1565b90508181036040830152610ccb81856107a1565b9050610cda6060830184610726565b95945050505050565b7f4c616e6420646f6573206e6f742065786973742e0000000000000000000000005f82015250565b5f610d17601483610783565b9150610d2282610ce3565b602082019050919050565b5f6020820190508181035f830152610d4481610d0b565b905091905056fea2646970667358221220db860a36c4e4bffed3a1b4c0ff487098534638845a017cbafd124827cdcb96f364736f6c634300081c0033",
  "immutableReferences": {},
  "source": "// SPDX-License-Identifier: MIT\r\npragma solidity ^0.8.0;\r\n\r\ncontract LandRegistry {\r\n    struct Land {\r\n        uint id;\r\n        string owner;\r\n        string location;\r\n        uint size;\r\n        bool isRegistered;\r\n    }\r\n\r\n    mapping(uint => Land) public lands;\r\n    uint public landCount;\r\n\r\n    event LandRegistered(uint id, string owner, string location, uint size);\r\n\r\n    // Function to register a new piece of land\r\n    function registerLand(string memory _owner, string memory _location, uint _size) public {\r\n        landCount++; // Increment landCount before assigning\r\n        lands[landCount] = Land(landCount, _owner, _location, _size, true);\r\n        emit LandRegistered(landCount, _owner, _location, _size);\r\n    }\r\n\r\n    // Function to get details of a land by its ID\r\n    function getLand(uint _id) public view returns (Land memory) {\r\n        require(_id <= landCount, \"Land does not exist.\");\r\n        return lands[_id];\r\n    }\r\n}\r\n",
  "sourcePath": "C:\\Users\\Admin\\OneDrive\\Desktop\\Land-registration\\contracts\\LandRegistry.sol",
  "compiler": {
    "name": "solc",
    "version": "0.8.28+commit.7893614a.Emscripten.clang"
  },
  "schemaVersion": "3.4.16",
  "updatedAt": "2024-10-18T06:17:22.096Z",
  "networkType": "ethereum",
  "devdoc": {
    "kind": "dev",
    "methods": {},
    "version": 1
  },
  "userdoc": {
    "kind": "user",
    "methods": {},
    "version": 1
  }
}